:0200000007fff8
:0200010007fff7
:0200020007fff6
:0200030007fff5
:0200040007fff4
:0200050007fff3
:0200060007fff2
:0200070007fff1
:0200080007fff0
:0200090007ffef
:02000a0007ffee
:02000b0007ffed
:02000c0007ffec
:02000d0007ffeb
:02000e0007ffea
:02000f0007ffe9
:0200100007ffe8
:0200110007ffe7
:0200120007ffe6
:0200130007ffe5
:0200140007ffe4
:0200150007ffe3
:0200160007ffe2
:0200170007ffe1
:0200180007ffe0
:0200190007ffdf
:02001a0007ffde
:02001b0007ffdd
:02001c0007ffdc
:02001d0007ffdb
:02001e0007ffda
:02001f0007ffd9
:0200200007ffd8
:0200210007ffd7
:0200220007ffd6
:0200230007ffd5
:0200240007ffd4
:0200250007ffd3
:0200260007ffd2
:0200270007ffd1
:0200280007ffd0
:0200290007ffcf
:02002a0007ffce
:02002b0007ffcd
:02002c0007ffcc
:02002d0007ffcb
:02002e0007ffca
:02002f0007ffc9
:0200300007ffc8
:0200310007ffc7
:0200320007ffc6
:0200330007ffc5
:0200340007ffc4
:0200350007ffc3
:0200360007ffc2
:0200370007ffc1
:0200380007ffc0
:0200390007ffbf
:02003a0007ffbe
:02003b0007ffbd
:02003c0007ffbc
:02003d0007ffbb
:02003e0007ffba
:02003f0007ffb9
:0200400007ffb8
:0200410007ffb7
:0200420007ffb6
:0200430007ffb5
:0200440007ffb4
:0200450007ffb3
:0200460007ffb2
:0200470007ffb1
:0200480007ffb0
:0200490007ffaf
:02004a0007ffae
:02004b0007ffad
:02004c0007ffac
:02004d0007ffab
:02004e0007ffaa
:02004f0007ffa9
:0200500007ffa8
:0200510007ffa7
:0200520007ffa6
:0200530007ffa5
:0200540007ffa4
:0200550007ffa3
:0200560007ffa2
:0200570007ffa1
:0200580007ffa0
:0200590007ff9f
:02005a0007ff9e
:02005b0007ff9d
:02005c0007ff9c
:02005d0007ff9b
:02005e0007ff9a
:02005f0007ff99
:0200600007ff98
:0200610007ff97
:0200620007ff96
:0200630007ff95
:0200640007ff94
:0200650007ff93
:0200660007ff92
:0200670007ff91
:0200680007ff90
:0200690007ff8f
:02006a0007ff8e
:02006b0007ff8d
:02006c0007ff8c
:02006d0007ff8b
:02006e0007ff8a
:02006f0007ff89
:0200700007ff88
:0200710007ff87
:0200720007ff86
:0200730007ff85
:0200740007ff84
:0200750007ff83
:0200760007ff82
:0200770007ff81
:0200780007ff80
:0200790007ff7f
:02007a0007ff7e
:02007b0007ff7d
:02007c0007ff7c
:02007d0007ff7b
:02007e0007ff7a
:02007f0007ff79
:0200800007ff78
:0200810007ff77
:0200820007ff76
:0200830007ff75
:0200840007ff74
:0200850007ff73
:0200860007ff72
:0200870007ff71
:0200880007ff70
:0200890007ff6f
:02008a0007ff6e
:02008b0007ff6d
:02008c0007ff6c
:02008d0007ff6b
:02008e0007ff6a
:02008f0007ff69
:0200900007ff68
:0200910007ff67
:0200920007ff66
:0200930007ff65
:0200940007ff64
:0200950007ff63
:0200960007ff62
:0200970007ff61
:0200980007ff60
:0200990007ff5f
:02009a0007ff5e
:02009b0007ff5d
:02009c0007ff5c
:02009d0007ff5b
:02009e0007ff5a
:02009f0007ff59
:0200a00007ff58
:0200a10007ff57
:0200a20007ff56
:0200a30007ff55
:0200a40007ff54
:0200a50007ff53
:0200a60007ff52
:0200a70007ff51
:0200a80007ff50
:0200a90007ff4f
:0200aa0007ff4e
:0200ab0007ff4d
:0200ac0007ff4c
:0200ad0007ff4b
:0200ae0007ff4a
:0200af0007ff49
:0200b00007ff48
:0200b10007ff47
:0200b20007ff46
:0200b30007ff45
:0200b40007ff44
:0200b50007ff43
:0200b60007ff42
:0200b70007ff41
:0200b80007ff40
:0200b90007ff3f
:0200ba0007ff3e
:0200bb0007ff3d
:0200bc0007ff3c
:0200bd0007ff3b
:0200be0007ff3a
:0200bf0007ff39
:0200c00007ff38
:0200c10007ff37
:0200c20007ff36
:0200c30007ff35
:0200c40007ff34
:0200c50007ff33
:0200c60007ff32
:0200c70007ff31
:0200c80007ff30
:0200c90007ff2f
:0200ca0007ff2e
:0200cb0007ff2d
:0200cc0007ff2c
:0200cd0007ff2b
:0200ce0007ff2a
:0200cf0007ff29
:0200d00007ff28
:0200d10007ff27
:0200d20007ff26
:0200d30007ff25
:0200d40007ff24
:0200d50007ff23
:0200d60007ff22
:0200d70007ff21
:0200d80007ff20
:0200d90007ff1f
:0200da0007ff1e
:0200db0007ff1d
:0200dc0007ff1c
:0200dd0007ff1b
:0200de0007ff1a
:0200df0007ff19
:0200e00007ff18
:0200e10007ff17
:0200e20007ff16
:0200e30007ff15
:0200e40007ff14
:0200e50007ff13
:0200e60007ff12
:0200e70007ff11
:0200e80007ff10
:0200e90007ff0f
:0200ea0007ff0e
:0200eb0007ff0d
:0200ec0007ff0c
:0200ed0007ff0b
:0200ee0007ff0a
:0200ef0007ff09
:0200f00007ff08
:0200f10007ff07
:0200f20007ff06
:0200f30007ff05
:0200f40007ff04
:0200f50007ff03
:0200f60007ff02
:0200f70007ff01
:0200f80007ff00
:0200f90007ffff
:0200fa0007fffe
:0200fb0007fffd
:0200fc0007fffc
:0200fd0007fffb
:0200fe0007fffa
:0200ff0007fff9
:0201000007fff7
:0201010007fff6
:0201020007fff5
:0201030007fff4
:0201040007fff3
:0201050007fff2
:0201060007fff1
:0201070007fff0
:0201080007ffef
:0201090007ffee
:02010a0007ffed
:02010b0007ffec
:02010c0007ffeb
:02010d0007ffea
:02010e0007ffe9
:02010f0007ffe8
:0201100007ffe7
:0201110007ffe6
:0201120007ffe5
:0201130007ffe4
:0201140007ffe3
:0201150007ffe2
:0201160007ffe1
:0201170007ffe0
:0201180007ffdf
:0201190007ffde
:02011a0007ffdd
:02011b0007ffdc
:02011c0007ffdb
:02011d0007ffda
:02011e0007ffd9
:02011f0007ffd8
:0201200007ffd7
:0201210007ffd6
:0201220007ffd5
:0201230007ffd4
:0201240007ffd3
:0201250007ffd2
:0201260007ffd1
:0201270007ffd0
:0201280007ffcf
:0201290007ffce
:02012a0007ffcd
:02012b0007ffcc
:02012c0007ffcb
:02012d0007ffca
:02012e0007ffc9
:02012f0007ffc8
:0201300007ffc7
:0201310007ffc6
:0201320007ffc5
:0201330007ffc4
:0201340007ffc3
:0201350007ffc2
:0201360007ffc1
:0201370007ffc0
:0201380007ffbf
:0201390007ffbe
:02013a0007ffbd
:02013b0007ffbc
:02013c0007ffbb
:02013d0007ffba
:02013e0007ffb9
:02013f0007ffb8
:0201400007ffb7
:0201410007ffb6
:0201420007ffb5
:0201430007ffb4
:0201440007ffb3
:0201450007ffb2
:0201460007ffb1
:0201470007ffb0
:0201480007ffaf
:0201490007ffae
:02014a0007ffad
:02014b0007ffac
:02014c0007ffab
:02014d0007ffaa
:02014e0007ffa9
:02014f0007ffa8
:0201500007ffa7
:0201510007ffa6
:0201520007ffa5
:0201530007ffa4
:0201540007ffa3
:0201550007ffa2
:0201560007ffa1
:0201570007ffa0
:0201580007ff9f
:0201590007ff9e
:02015a0007ff9d
:02015b0007ff9c
:02015c0007ff9b
:02015d0007ff9a
:02015e0007ff99
:02015f0007ff98
:0201600007ff97
:0201610007ff96
:0201620007ff95
:0201630007ff94
:0201640007ff93
:0201650007ff92
:0201660007ff91
:0201670007ff90
:0201680007ff8f
:0201690007ff8e
:02016a0007ff8d
:02016b0007ff8c
:02016c0007ff8b
:02016d0007ff8a
:02016e0007ff89
:02016f0007ff88
:0201700007ff87
:0201710007ff86
:0201720007ff85
:0201730007ff84
:0201740007ff83
:0201750007ff82
:0201760007ff81
:0201770007ff80
:0201780007ff7f
:0201790007ff7e
:02017a0007ff7d
:02017b0007ff7c
:02017c0007ff7b
:02017d0007ff7a
:02017e0007ff79
:02017f0007ff78
:0201800007ff77
:0201810007ff76
:0201820007ff75
:0201830007ff74
:0201840007ff73
:0201850007ff72
:0201860007ff71
:0201870007ff70
:0201880007ff6f
:0201890007ff6e
:02018a0007ff6d
:02018b0007ff6c
:02018c0007ff6b
:02018d0007ff6a
:02018e0007ff69
:02018f0007ff68
:0201900007ff67
:0201910007ff66
:0201920007ff65
:0201930007ff64
:0201940007ff63
:0201950007ff62
:0201960007ff61
:0201970007ff60
:0201980007ff5f
:0201990007ff5e
:02019a0007ff5d
:02019b0007ff5c
:02019c0007ff5b
:02019d0007ff5a
:02019e0007ff59
:02019f0007ff58
:0201a00007ff57
:0201a10007ff56
:0201a20007ff55
:0201a30007ff54
:0201a40007ff53
:0201a50007ff52
:0201a60007ff51
:0201a70007ff50
:0201a80007ff4f
:0201a90007ff4e
:0201aa0007ff4d
:0201ab0007ff4c
:0201ac0007ff4b
:0201ad0007ff4a
:0201ae0007ff49
:0201af0007ff48
:0201b00007ff47
:0201b10007ff46
:0201b20007ff45
:0201b30007ff44
:0201b40007ff43
:0201b50007ff42
:0201b60007ff41
:0201b70007ff40
:0201b80007ff3f
:0201b90007ff3e
:0201ba0007ff3d
:0201bb0007ff3c
:0201bc0007ff3b
:0201bd0007ff3a
:0201be0007ff39
:0201bf0007ff38
:0201c00007ff37
:0201c10007ff36
:0201c20007ff35
:0201c30007ff34
:0201c40007ff33
:0201c50007ff32
:0201c60007ff31
:0201c70007ff30
:0201c80007ff2f
:0201c90007ff2e
:0201ca0007ff2d
:0201cb0007ff2c
:0201cc0007ff2b
:0201cd0007ff2a
:0201ce0007ff29
:0201cf0007ff28
:0201d00007ff27
:0201d10007ff26
:0201d20007ff25
:0201d30007ff24
:0201d40007ff23
:0201d50007ff22
:0201d60007ff21
:0201d70007ff20
:0201d80007ff1f
:0201d90007ff1e
:0201da0007ff1d
:0201db0007ff1c
:0201dc0007ff1b
:0201dd0007ff1a
:0201de0007ff19
:0201df0007ff18
:0201e00007ff17
:0201e10007ff16
:0201e20007ff15
:0201e30007ff14
:0201e40007ff13
:0201e50007ff12
:0201e60007ff11
:0201e70007ff10
:0201e80007ff0f
:0201e90007ff0e
:0201ea0007ff0d
:0201eb0007ff0c
:0201ec0007ff0b
:0201ed0007ff0a
:0201ee0007ff09
:0201ef0007ff08
:0201f00007ff07
:0201f10007ff06
:0201f20007ff05
:0201f30007ff04
:0201f40007ff03
:0201f50007ff02
:0201f60007ff01
:0201f70007ff00
:0201f80007ffff
:0201f90007fffe
:0201fa0007fffd
:0201fb0007fffc
:0201fc0007fffb
:0201fd0007fffa
:0201fe0007fff9
:0201ff0007fff8
:00000001FF
