:020000000000fe
:020001000019e4
:020002000032ca
:02000300004bb0
:02000400006496
:02000500007e7b
:02000600009761
:0200070000b047
:0200080000c92d
:0200090000e213
:02000a0000fbf9
:02000b000113df
:02000c00012cc5
:02000d000145ab
:02000e00015e91
:02000f00017777
:02001000018f5e
:0200110001a844
:0200120001c12a
:0200130001d911
:0200140001f1f8
:02001500020add
:020016000222c4
:02001700023aab
:02001800025292
:02001900026a79
:02001a00028260
:02001b00029a47
:02001c0002b22e
:02001d0002c916
:02001e0002e1fd
:02001f0002f8e5
:02002000030fcc
:020021000327b3
:02002200033e9b
:02002300035484
:02002400036b6c
:02002500038254
:0200260003983d
:0200270003af25
:0200280003c50e
:0200290003dbf7
:02002a0003f1e0
:02002b000407c8
:02002c00041cb2
:02002d0004329b
:02002e00044785
:02002f00045c6f
:02003000047159
:02003100048643
:02003200049b2d
:0200330004af18
:0200340004c303
:0200350004d7ee
:0200360004ebd9
:0200370004ffc4
:020038000513ae
:0200390005269a
:02003a00053986
:02003b00054c72
:02003c00055f5e
:02003d0005714b
:02003e00058338
:02003f00059624
:0200400005a712
:0200410005b9ff
:0200420005cbec
:0200430005dcda
:0200440005edc8
:0200450005fdb7
:02004600060ea4
:02004700061e93
:02004800062e82
:02004900063e71
:02004a00064e60
:02004b00065d50
:02004c00066c40
:02004d00067b30
:02004e00068a20
:02004f00069811
:0200500006a602
:0200510006b4f3
:0200520006c1e5
:0200530006cfd6
:0200540006dcc8
:0200550006e9ba
:0200560006f5ad
:0200570007019f
:02005800070d92
:02005900071985
:02005a00072479
:02005b0007306c
:02005c00073a61
:02005d00074555
:02005e00074f4a
:02005f0007593f
:02006000076334
:02006100076d29
:0200620007761f
:02006300077f15
:0200640007870c
:02006500079002
:020066000798f9
:02006700079ff1
:0200680007a7e8
:0200690007aee0
:02006a0007b5d8
:02006b0007bbd1
:02006c0007c2c9
:02006d0007c8c2
:02006e0007cdbc
:02006f0007d3b5
:0200700007d8af
:0200710007dcaa
:0200720007e1a4
:0200730007e59f
:0200740007e99a
:0200750007ec96
:0200760007f091
:0200770007f38d
:0200780007f58a
:0200790007f787
:02007a0007f984
:02007b0007fb81
:02007c0007fd7e
:02007d0007fe7c
:02007e0007fe7b
:02007f0007ff79
:0200800007ff78
:0200810007ff77
:0200820007fe77
:0200830007fe76
:0200840007fd76
:0200850007fb77
:0200860007f978
:0200870007f779
:0200880007f57a
:0200890007f37b
:02008a0007f07d
:02008b0007ec80
:02008c0007e982
:02008d0007e585
:02008e0007e188
:02008f0007dc8c
:0200900007d88f
:0200910007d393
:0200920007cd98
:0200930007c89c
:0200940007c2a1
:0200950007bba7
:0200960007b5ac
:0200970007aeb2
:0200980007a7b8
:02009900079fbf
:02009a000798c5
:02009b000790cc
:02009c000787d4
:02009d00077fdb
:02009e000776e3
:02009f00076deb
:0200a0000763f4
:0200a1000759fd
:0200a200074f06
:0200a30007450f
:0200a400073a19
:0200a500073022
:0200a60007242d
:0200a700071937
:0200a800070d42
:0200a90007014d
:0200aa0006f559
:0200ab0006e964
:0200ac0006dc70
:0200ad0006cf7c
:0200ae0006c189
:0200af0006b495
:0200b00006a6a2
:0200b1000698af
:0200b200068abc
:0200b300067bca
:0200b400066cd8
:0200b500065de6
:0200b600064ef4
:0200b700063e03
:0200b800062e12
:0200b900061e21
:0200ba00060e30
:0200bb0005fd41
:0200bc0005ed50
:0200bd0005dc60
:0200be0005cb70
:0200bf0005b981
:0200c00005a792
:0200c1000596a2
:0200c2000583b4
:0200c3000571c5
:0200c400055fd6
:0200c500054ce8
:0200c6000539fa
:0200c70005260c
:0200c80005131e
:0200c90004ff32
:0200ca0004eb45
:0200cb0004d758
:0200cc0004c36b
:0200cd0004af7e
:0200ce00049b91
:0200cf000486a5
:0200d0000471b9
:0200d100045ccd
:0200d2000447e1
:0200d3000432f5
:0200d400041c0a
:0200d50004071e
:0200d60003f134
:0200d70003db49
:0200d80003c55e
:0200d90003af73
:0200da00039889
:0200db0003829e
:0200dc00036bb4
:0200dd000354ca
:0200de00033edf
:0200df000327f5
:0200e000030f0c
:0200e10002f823
:0200e20002e139
:0200e30002c950
:0200e40002b266
:0200e500029a7d
:0200e600028294
:0200e700026aab
:0200e8000252c2
:0200e900023ad9
:0200ea000222f0
:0200eb00020a07
:0200ec0001f120
:0200ed0001d937
:0200ee0001c14e
:0200ef0001a866
:0200f000018f7e
:0200f100017795
:0200f200015ead
:0200f3000145c5
:0200f400012cdd
:0200f5000113f5
:0200f60000fb0d
:0200f70000e225
:0200f80000c93d
:0200f90000b055
:0200fa0000976d
:0200fb00007e85
:0200fc0000649e
:0200fd00004bb6
:0200fe000032ce
:0200ff000019e6
:020100000000fd
:020101000fe706
:020102000fce1e
:020103000fb536
:020104000f9c4e
:020105000f8267
:020106000f697f
:020107000f5097
:020108000f37af
:020109000f1ec7
:02010a000f05df
:02010b000eedf7
:02010c000ed40f
:02010d000ebb27
:02010e000ea23f
:02010f000e8957
:020110000e716e
:020111000e5886
:020112000e3f9e
:020113000e27b5
:020114000e0fcc
:020115000df6e5
:020116000ddefc
:020117000dc613
:020118000dae2a
:020119000d9641
:02011a000d7e58
:02011b000d666f
:02011c000d4e86
:02011d000d379c
:02011e000d1fb3
:02011f000d08c9
:020120000cf1e0
:020121000cd9f7
:020122000cc20d
:020123000cac22
:020124000c9538
:020125000c7e4e
:020126000c6863
:020127000c5179
:020128000c3b8e
:020129000c25a3
:02012a000c0fb8
:02012b000bf9ce
:02012c000be4e2
:02012d000bcef7
:02012e000bb90b
:02012f000ba41f
:020130000b8f33
:020131000b7a47
:020132000b655b
:020133000b516e
:020134000b3d81
:020135000b2994
:020136000b15a7
:020137000b01ba
:020138000aedce
:020139000adae0
:02013a000ac7f2
:02013b000ab404
:02013c000aa116
:02013d000a8f27
:02013e000a7d38
:02013f000a6a4a
:020140000a595a
:020141000a476b
:020142000a357c
:020143000a248c
:020144000a139c
:020145000a03ab
:0201460009f2bc
:0201470009e2cb
:0201480009d2da
:0201490009c2e9
:02014a0009b2f8
:02014b0009a306
:02014c00099414
:02014d00098522
:02014e00097630
:02014f0009683d
:02015000095a4a
:02015100094c57
:02015200093f63
:02015300093170
:0201540009247c
:02015500091788
:02015600090b93
:0201570008ff9f
:0201580008f3aa
:0201590008e7b5
:02015a0008dcbf
:02015b0008d0ca
:02015c0008c6d3
:02015d0008bbdd
:02015e0008b1e6
:02015f0008a7ef
:02016000089df8
:02016100089301
:02016200088a09
:02016300088111
:02016400087918
:02016500087020
:02016600086827
:0201670008612d
:02016800085934
:0201690008523a
:02016a00084b40
:02016b00084545
:02016c00083e4b
:02016d00083850
:02016e00083354
:02016f00082d59
:0201700008285d
:02017100082460
:02017200081f64
:02017300081b67
:0201740008176a
:0201750008146c
:0201760008106f
:02017700080d71
:02017800080b72
:02017900080973
:02017a00080774
:02017b00080575
:02017c00080376
:02017d00080276
:02017e00080275
:02017f00080175
:02018000080174
:02018100080173
:02018200080271
:02018300080270
:0201840008036e
:0201850008056b
:02018600080768
:02018700080965
:02018800080b62
:02018900080d5f
:02018a0008105b
:02018b00081456
:02018c00081752
:02018d00081b4d
:02018e00081f48
:02018f00082442
:0201900008283d
:02019100082d37
:02019200083330
:0201930008382a
:02019400083e23
:0201950008451b
:02019600084b14
:0201970008520c
:02019800085904
:020199000861fb
:02019a000868f3
:02019b000870ea
:02019c000879e0
:02019d000881d7
:02019e00088acd
:02019f000893c3
:0201a000089db8
:0201a10008a7ad
:0201a20008b1a2
:0201a30008bb97
:0201a40008c68b
:0201a50008d080
:0201a60008dc73
:0201a70008e767
:0201a80008f35a
:0201a90008ff4d
:0201aa00090b3f
:0201ab00091732
:0201ac00092424
:0201ad00093116
:0201ae00093f07
:0201af00094cf9
:0201b000095aea
:0201b1000968db
:0201b2000976cc
:0201b3000985bc
:0201b4000994ac
:0201b50009a39c
:0201b60009b28c
:0201b70009c27b
:0201b80009d26a
:0201b90009e259
:0201ba0009f248
:0201bb000a0335
:0201bc000a1324
:0201bd000a2412
:0201be000a3500
:0201bf000a47ed
:0201c0000a59da
:0201c1000a6ac8
:0201c2000a7db4
:0201c3000a8fa1
:0201c4000aa18e
:0201c5000ab47a
:0201c6000ac766
:0201c7000ada52
:0201c8000aed3e
:0201c9000b0128
:0201ca000b1513
:0201cb000b29fe
:0201cc000b3de9
:0201cd000b51d4
:0201ce000b65bf
:0201cf000b7aa9
:0201d0000b8f93
:0201d1000ba47d
:0201d2000bb967
:0201d3000bce51
:0201d4000be43a
:0201d5000bf924
:0201d6000c0f0c
:0201d7000c25f5
:0201d8000c3bde
:0201d9000c51c7
:0201da000c68af
:0201db000c7e98
:0201dc000c9580
:0201dd000cac68
:0201de000cc251
:0201df000cd939
:0201e0000cf120
:0201e1000d0807
:0201e2000d1fef
:0201e3000d37d6
:0201e4000d4ebe
:0201e5000d66a5
:0201e6000d7e8c
:0201e7000d9673
:0201e8000dae5a
:0201e9000dc641
:0201ea000dde28
:0201eb000df60f
:0201ec000e0ff4
:0201ed000e27db
:0201ee000e3fc2
:0201ef000e58a8
:0201f0000e718e
:0201f1000e8975
:0201f2000ea25b
:0201f3000ebb41
:0201f4000ed427
:0201f5000eed0d
:0201f6000f05f3
:0201f7000f1ed9
:0201f8000f37bf
:0201f9000f50a5
:0201fa000f698b
:0201fb000f8271
:0201fc000f9c56
:0201fd000fb53c
:0201fe000fce22
:0201ff000fe708
:00000001FF
